{
  "address": "0xDd55573e1ec59862984EEC721d9EFB50c0F1EBD0",
  "abi": [
    {
      "inputs": [
        {
          "internalType": "address",
          "name": "vrfCoordinatorV2",
          "type": "address"
        },
        {
          "internalType": "uint256",
          "name": "entranceFee",
          "type": "uint256"
        },
        {
          "internalType": "bytes32",
          "name": "gasLane",
          "type": "bytes32"
        },
        {
          "internalType": "uint64",
          "name": "subscriptionId",
          "type": "uint64"
        },
        {
          "internalType": "uint32",
          "name": "callbackGasLimit",
          "type": "uint32"
        },
        {
          "internalType": "uint256",
          "name": "interval",
          "type": "uint256"
        }
      ],
      "stateMutability": "nonpayable",
      "type": "constructor"
    },
    {
      "inputs": [
        {
          "internalType": "address",
          "name": "have",
          "type": "address"
        },
        {
          "internalType": "address",
          "name": "want",
          "type": "address"
        }
      ],
      "name": "OnlyCoordinatorCanFulfill",
      "type": "error"
    },
    {
      "inputs": [],
      "name": "Raffle_NotEnoghETHEnter",
      "type": "error"
    },
    {
      "inputs": [],
      "name": "Raffle__NotOpen",
      "type": "error"
    },
    {
      "inputs": [],
      "name": "Raffle__TransferFailed",
      "type": "error"
    },
    {
      "inputs": [
        {
          "internalType": "uint256",
          "name": "currentBalance",
          "type": "uint256"
        },
        {
          "internalType": "uint256",
          "name": "numPlayers",
          "type": "uint256"
        },
        {
          "internalType": "uint256",
          "name": "raffleState",
          "type": "uint256"
        }
      ],
      "name": "Raffle__UpkeepNotNeeded",
      "type": "error"
    },
    {
      "anonymous": false,
      "inputs": [
        {
          "indexed": true,
          "internalType": "address",
          "name": "player",
          "type": "address"
        }
      ],
      "name": "RaffleEnter",
      "type": "event"
    },
    {
      "anonymous": false,
      "inputs": [
        {
          "indexed": true,
          "internalType": "uint256",
          "name": "requestId",
          "type": "uint256"
        }
      ],
      "name": "RequestRaffleWinner",
      "type": "event"
    },
    {
      "anonymous": false,
      "inputs": [
        {
          "indexed": true,
          "internalType": "address",
          "name": "winner",
          "type": "address"
        }
      ],
      "name": "WinnerPicked",
      "type": "event"
    },
    {
      "inputs": [
        {
          "internalType": "bytes",
          "name": "",
          "type": "bytes"
        }
      ],
      "name": "checkUpkeep",
      "outputs": [
        {
          "internalType": "bool",
          "name": "upkeepNeeded",
          "type": "bool"
        },
        {
          "internalType": "bytes",
          "name": "",
          "type": "bytes"
        }
      ],
      "stateMutability": "nonpayable",
      "type": "function"
    },
    {
      "inputs": [],
      "name": "enterRaffle",
      "outputs": [],
      "stateMutability": "payable",
      "type": "function"
    },
    {
      "inputs": [],
      "name": "getEntranceFee",
      "outputs": [
        {
          "internalType": "uint256",
          "name": "",
          "type": "uint256"
        }
      ],
      "stateMutability": "view",
      "type": "function"
    },
    {
      "inputs": [],
      "name": "getInterval",
      "outputs": [
        {
          "internalType": "uint256",
          "name": "",
          "type": "uint256"
        }
      ],
      "stateMutability": "view",
      "type": "function"
    },
    {
      "inputs": [],
      "name": "getLatestTimeStamp",
      "outputs": [
        {
          "internalType": "uint256",
          "name": "",
          "type": "uint256"
        }
      ],
      "stateMutability": "view",
      "type": "function"
    },
    {
      "inputs": [],
      "name": "getNumWords",
      "outputs": [
        {
          "internalType": "uint256",
          "name": "",
          "type": "uint256"
        }
      ],
      "stateMutability": "pure",
      "type": "function"
    },
    {
      "inputs": [],
      "name": "getNumberOfPlyers",
      "outputs": [
        {
          "internalType": "uint256",
          "name": "",
          "type": "uint256"
        }
      ],
      "stateMutability": "view",
      "type": "function"
    },
    {
      "inputs": [
        {
          "internalType": "uint256",
          "name": "index",
          "type": "uint256"
        }
      ],
      "name": "getPlayer",
      "outputs": [
        {
          "internalType": "address",
          "name": "",
          "type": "address"
        }
      ],
      "stateMutability": "view",
      "type": "function"
    },
    {
      "inputs": [
        {
          "internalType": "uint256",
          "name": "index",
          "type": "uint256"
        }
      ],
      "name": "getPlayers",
      "outputs": [
        {
          "internalType": "address",
          "name": "",
          "type": "address"
        }
      ],
      "stateMutability": "view",
      "type": "function"
    },
    {
      "inputs": [],
      "name": "getRaffleState",
      "outputs": [
        {
          "internalType": "enum Raffle.RaffleState",
          "name": "",
          "type": "uint8"
        }
      ],
      "stateMutability": "view",
      "type": "function"
    },
    {
      "inputs": [],
      "name": "getRecentWinner",
      "outputs": [
        {
          "internalType": "address",
          "name": "",
          "type": "address"
        }
      ],
      "stateMutability": "view",
      "type": "function"
    },
    {
      "inputs": [],
      "name": "getRequestConfirmations",
      "outputs": [
        {
          "internalType": "uint256",
          "name": "",
          "type": "uint256"
        }
      ],
      "stateMutability": "pure",
      "type": "function"
    },
    {
      "inputs": [
        {
          "internalType": "bytes",
          "name": "",
          "type": "bytes"
        }
      ],
      "name": "performUpkeep",
      "outputs": [],
      "stateMutability": "nonpayable",
      "type": "function"
    },
    {
      "inputs": [
        {
          "internalType": "uint256",
          "name": "requestId",
          "type": "uint256"
        },
        {
          "internalType": "uint256[]",
          "name": "randomWords",
          "type": "uint256[]"
        }
      ],
      "name": "rawFulfillRandomWords",
      "outputs": [],
      "stateMutability": "nonpayable",
      "type": "function"
    }
  ],
  "transactionHash": "0x6fd280e81e6efd890bfe6e7122b038b819e11fa2deed6cd981ae252a76d9a49d",
  "args": [
    "0x8103B0A8A00be2DDC778e6e7eaa21791Cd364625",
    "10000000000000000",
    "0x474e34a077df58807dbe9c96d3c009b23b3c6d0cce433e59bbf5b34f823bc56c",
    "2184",
    "500000",
    "30"
  ],
  "numDeployments": 1,
  "solcInputHash": "0582c44617d02de512b69f8a88909bd5",
  "bytecode": "0x6101606040523480156200001257600080fd5b50604051620018f7380380620018f78339818101604052810190620000389190620001ad565b858073ffffffffffffffffffffffffffffffffffffffff1660808173ffffffffffffffffffffffffffffffffffffffff1660601b81525050508460a081815250508573ffffffffffffffffffffffffffffffffffffffff1660e08173ffffffffffffffffffffffffffffffffffffffff1660601b815250508360c081815250508267ffffffffffffffff166101008167ffffffffffffffff1660c01b815250508163ffffffff166101208163ffffffff1660e01b815250506000600160146101000a81548160ff02191690836001811115620001195762000118620002b5565b5b0217905550426002819055508061014081815250505050505050506200036b565b6000815190506200014b81620002e9565b92915050565b600081519050620001628162000303565b92915050565b60008151905062000179816200031d565b92915050565b600081519050620001908162000337565b92915050565b600081519050620001a78162000351565b92915050565b60008060008060008060c08789031215620001cd57620001cc620002e4565b5b6000620001dd89828a016200013a565b9650506020620001f089828a0162000168565b95505060406200020389828a0162000151565b94505060606200021689828a0162000196565b93505060806200022989828a016200017f565b92505060a06200023c89828a0162000168565b9150509295509295509295565b6000620002568262000267565b9050919050565b6000819050919050565b600073ffffffffffffffffffffffffffffffffffffffff82169050919050565b6000819050919050565b600063ffffffff82169050919050565b600067ffffffffffffffff82169050919050565b7f4e487b7100000000000000000000000000000000000000000000000000000000600052602160045260246000fd5b600080fd5b620002f48162000249565b81146200030057600080fd5b50565b6200030e816200025d565b81146200031a57600080fd5b50565b620003288162000287565b81146200033457600080fd5b50565b620003428162000291565b81146200034e57600080fd5b50565b6200035c81620002a1565b81146200036857600080fd5b50565b60805160601c60a05160c05160e05160601c6101005160c01c6101205160e01c61014051611510620003e76000396000818161089f015261090d01526000610709015260006106e601526000610689015260006106c5015260008181610352015261045b01526000818161039b01526103ef01526115106000f3fe6080604052600436106100dd5760003560e01c8063460e20491161007f5780635f1b0fd8116100595780635f1b0fd81461027d5780636e04ff0d146102a857806391ad27b4146102e6578063e55ae4e814610311576100dd565b8063460e2049146101ea578063473f1ddc1461022757806353a2c19a14610252576100dd565b80631fe543e3116100bb5780631fe543e3146101635780632cfcc5391461018c578063320229eb146101965780634585e33b146101c1576100dd565b806309bc33a7146100e25780630ca238c71461010d578063115cbaf514610138575b600080fd5b3480156100ee57600080fd5b506100f761034e565b6040516101049190611104565b60405180910390f35b34801561011957600080fd5b50610122610376565b60405161012f9190611104565b60405180910390f35b34801561014457600080fd5b5061014d610382565b60405161015a91906110e9565b60405180910390f35b34801561016f57600080fd5b5061018a60048036038101906101859190610ece565b610399565b005b610194610459565b005b3480156101a257600080fd5b506101ab6105c8565b6040516101b89190611104565b60405180910390f35b3480156101cd57600080fd5b506101e860048036038101906101e39190610dde565b6105d2565b005b3480156101f657600080fd5b50610211600480360381019061020c9190610e74565b6107d1565b60405161021e9190611022565b60405180910390f35b34801561023357600080fd5b5061023c610818565b6040516102499190611022565b60405180910390f35b34801561025e57600080fd5b50610267610842565b6040516102749190611104565b60405180910390f35b34801561028957600080fd5b5061029261084f565b60405161029f9190611104565b60405180910390f35b3480156102b457600080fd5b506102cf60048036038101906102ca9190610e2b565b61085c565b6040516102dd929190611066565b60405180910390f35b3480156102f257600080fd5b506102fb610909565b6040516103089190611104565b60405180910390f35b34801561031d57600080fd5b5061033860048036038101906103339190610e74565b610931565b6040516103459190611022565b60405180910390f35b60007f0000000000000000000000000000000000000000000000000000000000000000905090565b60008080549050905090565b6000600160149054906101000a900460ff16905090565b7f000000000000000000000000000000000000000000000000000000000000000073ffffffffffffffffffffffffffffffffffffffff163373ffffffffffffffffffffffffffffffffffffffff161461044b57337f00000000000000000000000000000000000000000000000000000000000000006040517f1cf993f400000000000000000000000000000000000000000000000000000000815260040161044292919061103d565b60405180910390fd5b6104558282610978565b5050565b7f00000000000000000000000000000000000000000000000000000000000000003410156104b3576040517f24ddd05800000000000000000000000000000000000000000000000000000000815260040160405180910390fd5b600060018111156104c7576104c66113f0565b5b600160149054906101000a900460ff1660018111156104e9576104e86113f0565b5b14610520576040517f1425571c00000000000000000000000000000000000000000000000000000000815260040160405180910390fd5b6000339080600181540180825580915050600190039060005260206000200160009091909190916101000a81548173ffffffffffffffffffffffffffffffffffffffff021916908373ffffffffffffffffffffffffffffffffffffffff1602179055503373ffffffffffffffffffffffffffffffffffffffff167f0805e1d667bddb8a95f0f09880cf94f403fb596ce79928d9f29b74203ba284d460405160405180910390a2565b6000600254905090565b60006105ec6040518060200160405280600081525061085c565b5090508061065b5747600080549050600160149054906101000a900460ff16600181111561061d5761061c6113f0565b5b6040517f584327aa0000000000000000000000000000000000000000000000000000000081526004016106529392919061111f565b60405180910390fd5b60018060146101000a81548160ff021916908360018111156106805761067f6113f0565b5b021790555060007f000000000000000000000000000000000000000000000000000000000000000073ffffffffffffffffffffffffffffffffffffffff16635d3b1d307f00000000000000000000000000000000000000000000000000000000000000007f000000000000000000000000000000000000000000000000000000000000000060037f000000000000000000000000000000000000000000000000000000000000000060016040518663ffffffff1660e01b815260040161074a959493929190611096565b602060405180830381600087803b15801561076457600080fd5b505af1158015610778573d6000803e3d6000fd5b505050506040513d601f19601f8201168201806040525081019061079c9190610ea1565b9050807fde6349b018d6c03d837b67d9a198a6ba4842546f2295fe963fae141e5dbaef8160405160405180910390a250505050565b60008082815481106107e6576107e561141f565b5b9060005260206000200160009054906101000a900473ffffffffffffffffffffffffffffffffffffffff169050919050565b6000600160009054906101000a900473ffffffffffffffffffffffffffffffffffffffff16905090565b6000600161ffff16905090565b6000600361ffff16905090565b600060606000600160149054906101000a900460ff166001811115610884576108836113f0565b5b60006001811115610898576108976113f0565b5b14905060007f0000000000000000000000000000000000000000000000000000000000000000600254426108cc91906111ff565b119050600080600080549050119050600080471190508380156108ec5750825b80156108f55750815b80156108fe5750805b955050505050915091565b60007f0000000000000000000000000000000000000000000000000000000000000000905090565b60008082815481106109465761094561141f565b5b9060005260206000200160009054906101000a900473ffffffffffffffffffffffffffffffffffffffff169050919050565b60008080549050826000815181106109935761099261141f565b5b60200260200101516109a59190611361565b905060008082815481106109bc576109bb61141f565b5b9060005260206000200160009054906101000a900473ffffffffffffffffffffffffffffffffffffffff16905080600160006101000a81548173ffffffffffffffffffffffffffffffffffffffff021916908373ffffffffffffffffffffffffffffffffffffffff1602179055506000600160146101000a81548160ff02191690836001811115610a5057610a4f6113f0565b5b0217905550600067ffffffffffffffff811115610a7057610a6f61144e565b5b604051908082528060200260200182016040528015610a9e5781602001602082028036833780820191505090505b5060009080519060200190610ab4929190610ba9565b504260028190555060008173ffffffffffffffffffffffffffffffffffffffff1647604051610ae29061100d565b60006040518083038185875af1925050503d8060008114610b1f576040519150601f19603f3d011682016040523d82523d6000602084013e610b24565b606091505b5050905080610b5f576040517fa1d04b3900000000000000000000000000000000000000000000000000000000815260040160405180910390fd5b8173ffffffffffffffffffffffffffffffffffffffff167f5b690ec4a06fe979403046eaeea5b3ce38524683c3001f662c8b5a829632f7df60405160405180910390a25050505050565b828054828255906000526020600020908101928215610c22579160200282015b82811115610c215782518260006101000a81548173ffffffffffffffffffffffffffffffffffffffff021916908373ffffffffffffffffffffffffffffffffffffffff16021790555091602001919060010190610bc9565b5b509050610c2f9190610c33565b5090565b5b80821115610c4c576000816000905550600101610c34565b5090565b6000610c63610c5e8461117b565b611156565b90508083825260208201905082856020860282011115610c8657610c85611487565b5b60005b85811015610cb65781610c9c8882610db4565b845260208401935060208301925050600181019050610c89565b5050509392505050565b6000610cd3610cce846111a7565b611156565b905082815260208101848484011115610cef57610cee61148c565b5b610cfa8482856112ee565b509392505050565b600082601f830112610d1757610d16611482565b5b8135610d27848260208601610c50565b91505092915050565b60008083601f840112610d4657610d45611482565b5b8235905067ffffffffffffffff811115610d6357610d6261147d565b5b602083019150836001820283011115610d7f57610d7e611487565b5b9250929050565b600082601f830112610d9b57610d9a611482565b5b8135610dab848260208601610cc0565b91505092915050565b600081359050610dc3816114c3565b92915050565b600081519050610dd8816114c3565b92915050565b60008060208385031215610df557610df4611496565b5b600083013567ffffffffffffffff811115610e1357610e12611491565b5b610e1f85828601610d30565b92509250509250929050565b600060208284031215610e4157610e40611496565b5b600082013567ffffffffffffffff811115610e5f57610e5e611491565b5b610e6b84828501610d86565b91505092915050565b600060208284031215610e8a57610e89611496565b5b6000610e9884828501610db4565b91505092915050565b600060208284031215610eb757610eb6611496565b5b6000610ec584828501610dc9565b91505092915050565b60008060408385031215610ee557610ee4611496565b5b6000610ef385828601610db4565b925050602083013567ffffffffffffffff811115610f1457610f13611491565b5b610f2085828601610d02565b9150509250929050565b610f3381611233565b82525050565b610f4281611245565b82525050565b610f5181611251565b82525050565b6000610f62826111d8565b610f6c81856111e3565b9350610f7c8185602086016112fd565b610f858161149b565b840191505092915050565b610f99816112ca565b82525050565b6000610fac6000836111f4565b9150610fb7826114ac565b600082019050919050565b610fcb8161126e565b82525050565b610fda816112dc565b82525050565b610fe98161129c565b82525050565b610ff8816112a6565b82525050565b611007816112b6565b82525050565b600061101882610f9f565b9150819050919050565b60006020820190506110376000830184610f2a565b92915050565b60006040820190506110526000830185610f2a565b61105f6020830184610f2a565b9392505050565b600060408201905061107b6000830185610f39565b818103602083015261108d8184610f57565b90509392505050565b600060a0820190506110ab6000830188610f48565b6110b86020830187610ffe565b6110c56040830186610fc2565b6110d26060830185610fef565b6110df6080830184610fd1565b9695505050505050565b60006020820190506110fe6000830184610f90565b92915050565b60006020820190506111196000830184610fe0565b92915050565b60006060820190506111346000830186610fe0565b6111416020830185610fe0565b61114e6040830184610fe0565b949350505050565b6000611160611171565b905061116c8282611330565b919050565b6000604051905090565b600067ffffffffffffffff8211156111965761119561144e565b5b602082029050602081019050919050565b600067ffffffffffffffff8211156111c2576111c161144e565b5b6111cb8261149b565b9050602081019050919050565b600081519050919050565b600082825260208201905092915050565b600081905092915050565b600061120a8261129c565b91506112158361129c565b92508282101561122857611227611392565b5b828203905092915050565b600061123e8261127c565b9050919050565b60008115159050919050565b6000819050919050565b6000819050611269826114af565b919050565b600061ffff82169050919050565b600073ffffffffffffffffffffffffffffffffffffffff82169050919050565b6000819050919050565b600063ffffffff82169050919050565b600067ffffffffffffffff82169050919050565b60006112d58261125b565b9050919050565b60006112e78261126e565b9050919050565b82818337600083830152505050565b60005b8381101561131b578082015181840152602081019050611300565b8381111561132a576000848401525b50505050565b6113398261149b565b810181811067ffffffffffffffff821117156113585761135761144e565b5b80604052505050565b600061136c8261129c565b91506113778361129c565b925082611387576113866113c1565b5b828206905092915050565b7f4e487b7100000000000000000000000000000000000000000000000000000000600052601160045260246000fd5b7f4e487b7100000000000000000000000000000000000000000000000000000000600052601260045260246000fd5b7f4e487b7100000000000000000000000000000000000000000000000000000000600052602160045260246000fd5b7f4e487b7100000000000000000000000000000000000000000000000000000000600052603260045260246000fd5b7f4e487b7100000000000000000000000000000000000000000000000000000000600052604160045260246000fd5b600080fd5b600080fd5b600080fd5b600080fd5b600080fd5b600080fd5b6000601f19601f8301169050919050565b50565b600281106114c0576114bf6113f0565b5b50565b6114cc8161129c565b81146114d757600080fd5b5056fea264697066735822122057aa0c3b2a53392fd060d66e041e2b574bc0c15be3e51ad81d56ca2e4d539eec64736f6c63430008070033",
  "devdoc": {
    "kind": "dev",
    "methods": {},
    "version": 1
  },
  "userdoc": {
    "kind": "user",
    "methods": {},
    "version": 1
  },
  "storageLayout": {
    "storage": [
      {
        "astId": 407,
        "contract": "contracts/Raffle.sol:Raffle",
        "label": "s_players",
        "offset": 0,
        "slot": "0",
        "type": "t_array(t_address_payable)dyn_storage"
      },
      {
        "astId": 426,
        "contract": "contracts/Raffle.sol:Raffle",
        "label": "s_recentWinner",
        "offset": 0,
        "slot": "1",
        "type": "t_address"
      },
      {
        "astId": 429,
        "contract": "contracts/Raffle.sol:Raffle",
        "label": "s_raffleState",
        "offset": 20,
        "slot": "1",
        "type": "t_enum(RaffleState)402"
      },
      {
        "astId": 431,
        "contract": "contracts/Raffle.sol:Raffle",
        "label": "s_lastTimeStamp",
        "offset": 0,
        "slot": "2",
        "type": "t_uint256"
      }
    ],
    "types": {
      "t_address": {
        "encoding": "inplace",
        "label": "address",
        "numberOfBytes": "20"
      },
      "t_address_payable": {
        "encoding": "inplace",
        "label": "address payable",
        "numberOfBytes": "20"
      },
      "t_array(t_address_payable)dyn_storage": {
        "base": "t_address_payable",
        "encoding": "dynamic_array",
        "label": "address payable[]",
        "numberOfBytes": "32"
      },
      "t_enum(RaffleState)402": {
        "encoding": "inplace",
        "label": "enum Raffle.RaffleState",
        "numberOfBytes": "1"
      },
      "t_uint256": {
        "encoding": "inplace",
        "label": "uint256",
        "numberOfBytes": "32"
      }
    }
  }
}